{
  "contractName": "LSP7Mintable",
  "abi": [
    {
      "inputs": [
        {
          "internalType": "string",
          "name": "name_",
          "type": "string"
        },
        {
          "internalType": "string",
          "name": "symbol_",
          "type": "string"
        },
        {
          "internalType": "address",
          "name": "newOwner_",
          "type": "address"
        },
        {
          "internalType": "bool",
          "name": "isNFT_",
          "type": "bool"
        }
      ],
      "stateMutability": "nonpayable",
      "type": "constructor"
    },
    {
      "inputs": [],
      "name": "LSP4TokenNameNotEditable",
      "type": "error"
    },
    {
      "inputs": [],
      "name": "LSP4TokenSymbolNotEditable",
      "type": "error"
    },
    {
      "inputs": [
        {
          "internalType": "address",
          "name": "tokenOwner",
          "type": "address"
        },
        {
          "internalType": "uint256",
          "name": "authorizedAmount",
          "type": "uint256"
        },
        {
          "internalType": "address",
          "name": "operator",
          "type": "address"
        },
        {
          "internalType": "uint256",
          "name": "amount",
          "type": "uint256"
        }
      ],
      "name": "LSP7AmountExceedsAuthorizedAmount",
      "type": "error"
    },
    {
      "inputs": [
        {
          "internalType": "uint256",
          "name": "balance",
          "type": "uint256"
        },
        {
          "internalType": "address",
          "name": "tokenOwner",
          "type": "address"
        },
        {
          "internalType": "uint256",
          "name": "amount",
          "type": "uint256"
        }
      ],
      "name": "LSP7AmountExceedsBalance",
      "type": "error"
    },
    {
      "inputs": [],
      "name": "LSP7CannotSendWithAddressZero",
      "type": "error"
    },
    {
      "inputs": [],
      "name": "LSP7CannotUseAddressZeroAsOperator",
      "type": "error"
    },
    {
      "inputs": [],
      "name": "LSP7InvalidTransferBatch",
      "type": "error"
    },
    {
      "inputs": [
        {
          "internalType": "address",
          "name": "tokenReceiver",
          "type": "address"
        }
      ],
      "name": "LSP7NotifyTokenReceiverContractMissingLSP1Interface",
      "type": "error"
    },
    {
      "inputs": [
        {
          "internalType": "address",
          "name": "tokenReceiver",
          "type": "address"
        }
      ],
      "name": "LSP7NotifyTokenReceiverIsEOA",
      "type": "error"
    },
    {
      "anonymous": false,
      "inputs": [
        {
          "indexed": true,
          "internalType": "address",
          "name": "operator",
          "type": "address"
        },
        {
          "indexed": true,
          "internalType": "address",
          "name": "tokenOwner",
          "type": "address"
        },
        {
          "indexed": true,
          "internalType": "uint256",
          "name": "amount",
          "type": "uint256"
        }
      ],
      "name": "AuthorizedOperator",
      "type": "event"
    },
    {
      "anonymous": false,
      "inputs": [
        {
          "indexed": true,
          "internalType": "bytes32",
          "name": "dataKey",
          "type": "bytes32"
        }
      ],
      "name": "DataChanged",
      "type": "event"
    },
    {
      "anonymous": false,
      "inputs": [
        {
          "indexed": true,
          "internalType": "address",
          "name": "previousOwner",
          "type": "address"
        },
        {
          "indexed": true,
          "internalType": "address",
          "name": "newOwner",
          "type": "address"
        }
      ],
      "name": "OwnershipTransferred",
      "type": "event"
    },
    {
      "anonymous": false,
      "inputs": [
        {
          "indexed": true,
          "internalType": "address",
          "name": "operator",
          "type": "address"
        },
        {
          "indexed": true,
          "internalType": "address",
          "name": "tokenOwner",
          "type": "address"
        }
      ],
      "name": "RevokedOperator",
      "type": "event"
    },
    {
      "anonymous": false,
      "inputs": [
        {
          "indexed": true,
          "internalType": "address",
          "name": "operator",
          "type": "address"
        },
        {
          "indexed": true,
          "internalType": "address",
          "name": "from",
          "type": "address"
        },
        {
          "indexed": true,
          "internalType": "address",
          "name": "to",
          "type": "address"
        },
        {
          "indexed": false,
          "internalType": "uint256",
          "name": "amount",
          "type": "uint256"
        },
        {
          "indexed": false,
          "internalType": "bool",
          "name": "force",
          "type": "bool"
        },
        {
          "indexed": false,
          "internalType": "bytes",
          "name": "data",
          "type": "bytes"
        }
      ],
      "name": "Transfer",
      "type": "event"
    },
    {
      "inputs": [
        {
          "internalType": "address",
          "name": "operator",
          "type": "address"
        },
        {
          "internalType": "uint256",
          "name": "amount",
          "type": "uint256"
        }
      ],
      "name": "authorizeOperator",
      "outputs": [],
      "stateMutability": "nonpayable",
      "type": "function"
    },
    {
      "inputs": [
        {
          "internalType": "address",
          "name": "tokenOwner",
          "type": "address"
        }
      ],
      "name": "balanceOf",
      "outputs": [
        {
          "internalType": "uint256",
          "name": "",
          "type": "uint256"
        }
      ],
      "stateMutability": "view",
      "type": "function",
      "constant": true
    },
    {
      "inputs": [],
      "name": "decimals",
      "outputs": [
        {
          "internalType": "uint256",
          "name": "",
          "type": "uint256"
        }
      ],
      "stateMutability": "view",
      "type": "function",
      "constant": true
    },
    {
      "inputs": [
        {
          "internalType": "bytes32[]",
          "name": "dataKeys",
          "type": "bytes32[]"
        }
      ],
      "name": "getData",
      "outputs": [
        {
          "internalType": "bytes[]",
          "name": "dataValues",
          "type": "bytes[]"
        }
      ],
      "stateMutability": "view",
      "type": "function",
      "constant": true
    },
    {
      "inputs": [
        {
          "internalType": "bytes32",
          "name": "dataKey",
          "type": "bytes32"
        }
      ],
      "name": "getData",
      "outputs": [
        {
          "internalType": "bytes",
          "name": "dataValue",
          "type": "bytes"
        }
      ],
      "stateMutability": "view",
      "type": "function",
      "constant": true
    },
    {
      "inputs": [
        {
          "internalType": "address",
          "name": "operator",
          "type": "address"
        },
        {
          "internalType": "address",
          "name": "tokenOwner",
          "type": "address"
        }
      ],
      "name": "isOperatorFor",
      "outputs": [
        {
          "internalType": "uint256",
          "name": "",
          "type": "uint256"
        }
      ],
      "stateMutability": "view",
      "type": "function",
      "constant": true
    },
    {
      "inputs": [],
      "name": "owner",
      "outputs": [
        {
          "internalType": "address",
          "name": "",
          "type": "address"
        }
      ],
      "stateMutability": "view",
      "type": "function",
      "constant": true
    },
    {
      "inputs": [],
      "name": "renounceOwnership",
      "outputs": [],
      "stateMutability": "nonpayable",
      "type": "function"
    },
    {
      "inputs": [
        {
          "internalType": "address",
          "name": "operator",
          "type": "address"
        }
      ],
      "name": "revokeOperator",
      "outputs": [],
      "stateMutability": "nonpayable",
      "type": "function"
    },
    {
      "inputs": [
        {
          "internalType": "bytes32[]",
          "name": "dataKeys",
          "type": "bytes32[]"
        },
        {
          "internalType": "bytes[]",
          "name": "dataValues",
          "type": "bytes[]"
        }
      ],
      "name": "setData",
      "outputs": [],
      "stateMutability": "nonpayable",
      "type": "function"
    },
    {
      "inputs": [
        {
          "internalType": "bytes32",
          "name": "dataKey",
          "type": "bytes32"
        },
        {
          "internalType": "bytes",
          "name": "dataValue",
          "type": "bytes"
        }
      ],
      "name": "setData",
      "outputs": [],
      "stateMutability": "nonpayable",
      "type": "function"
    },
    {
      "inputs": [
        {
          "internalType": "bytes4",
          "name": "interfaceId",
          "type": "bytes4"
        }
      ],
      "name": "supportsInterface",
      "outputs": [
        {
          "internalType": "bool",
          "name": "",
          "type": "bool"
        }
      ],
      "stateMutability": "view",
      "type": "function",
      "constant": true
    },
    {
      "inputs": [],
      "name": "totalSupply",
      "outputs": [
        {
          "internalType": "uint256",
          "name": "",
          "type": "uint256"
        }
      ],
      "stateMutability": "view",
      "type": "function",
      "constant": true
    },
    {
      "inputs": [
        {
          "internalType": "address",
          "name": "from",
          "type": "address"
        },
        {
          "internalType": "address",
          "name": "to",
          "type": "address"
        },
        {
          "internalType": "uint256",
          "name": "amount",
          "type": "uint256"
        },
        {
          "internalType": "bool",
          "name": "force",
          "type": "bool"
        },
        {
          "internalType": "bytes",
          "name": "data",
          "type": "bytes"
        }
      ],
      "name": "transfer",
      "outputs": [],
      "stateMutability": "nonpayable",
      "type": "function"
    },
    {
      "inputs": [
        {
          "internalType": "address[]",
          "name": "from",
          "type": "address[]"
        },
        {
          "internalType": "address[]",
          "name": "to",
          "type": "address[]"
        },
        {
          "internalType": "uint256[]",
          "name": "amount",
          "type": "uint256[]"
        },
        {
          "internalType": "bool",
          "name": "force",
          "type": "bool"
        },
        {
          "internalType": "bytes[]",
          "name": "data",
          "type": "bytes[]"
        }
      ],
      "name": "transferBatch",
      "outputs": [],
      "stateMutability": "nonpayable",
      "type": "function"
    },
    {
      "inputs": [
        {
          "internalType": "address",
          "name": "newOwner",
          "type": "address"
        }
      ],
      "name": "transferOwnership",
      "outputs": [],
      "stateMutability": "nonpayable",
      "type": "function"
    },
    {
      "inputs": [
        {
          "internalType": "address",
          "name": "to",
          "type": "address"
        },
        {
          "internalType": "uint256",
          "name": "amount",
          "type": "uint256"
        },
        {
          "internalType": "bool",
          "name": "force",
          "type": "bool"
        },
        {
          "internalType": "bytes",
          "name": "data",
          "type": "bytes"
        }
      ],
      "name": "mint",
      "outputs": [],
      "stateMutability": "nonpayable",
      "type": "function"
    }
  ],
  "bytecode": "0x60806040523480156200001157600080fd5b50604051620032ff380380620032ff83398181016040528101906200003791906200044c565b838383838383838062000055816200016460201b620009de1760201c565b50620000c57feafec4d89fa9619884b60000a4d96624a38f7ac2d8d9a604ecf07c12c77e480c60001b6040518060400160405280600481526020017fa4d96624000000000000000000000000000000000000000000000000000000008152506200026c60201b62000add1760201c565b620000ff7fdeba1e292f8ba88238e10ab3c7f88bd4be4fac56cad5194b6ecceaf653468af160001b846200026c60201b62000add1760201c565b620001397f2f0a68ab07768e01943a599e73362a0e17a63a72e94dd2e384d2c1d4db93275660001b836200026c60201b62000add1760201c565b50505080600260006101000a81548160ff0219169083151502179055505050505050505050620006f4565b62000174620002c760201b60201c565b73ffffffffffffffffffffffffffffffffffffffff168173ffffffffffffffffffffffffffffffffffffffff1614620002695760008060009054906101000a900473ffffffffffffffffffffffffffffffffffffffff169050816000806101000a81548173ffffffffffffffffffffffffffffffffffffffff021916908373ffffffffffffffffffffffffffffffffffffffff1602179055508173ffffffffffffffffffffffffffffffffffffffff168173ffffffffffffffffffffffffffffffffffffffff167f8be0079c531659141344cd1fd0a4f28419497f9722a3daafe3b4186f6b6457e060405160405180910390a3505b50565b8060016000848152602001908152602001600020908051906020019062000295929190620002f0565b50817fcdf4e344c0d23d4cdd0474039d176c55b19d531070dbe17856bfb993a5b5720b60405160405180910390a25050565b60008060009054906101000a900473ffffffffffffffffffffffffffffffffffffffff16905090565b828054620002fe90620005d1565b90600052602060002090601f0160209004810192826200032257600085556200036e565b82601f106200033d57805160ff19168380011785556200036e565b828001600101855582156200036e579182015b828111156200036d57825182559160200191906001019062000350565b5b5090506200037d919062000381565b5090565b5b808211156200039c57600081600090555060010162000382565b5090565b6000620003b7620003b18462000525565b620004fc565b905082815260208101848484011115620003d657620003d5620006a0565b5b620003e38482856200059b565b509392505050565b600081519050620003fc81620006c0565b92915050565b6000815190506200041381620006da565b92915050565b600082601f8301126200043157620004306200069b565b5b815162000443848260208601620003a0565b91505092915050565b60008060008060808587031215620004695762000468620006aa565b5b600085015167ffffffffffffffff8111156200048a5762000489620006a5565b5b620004988782880162000419565b945050602085015167ffffffffffffffff811115620004bc57620004bb620006a5565b5b620004ca8782880162000419565b9350506040620004dd87828801620003eb565b9250506060620004f08782880162000402565b91505092959194509250565b6000620005086200051b565b905062000516828262000607565b919050565b6000604051905090565b600067ffffffffffffffff8211156200054357620005426200066c565b5b6200054e82620006af565b9050602081019050919050565b600062000568826200057b565b9050919050565b60008115159050919050565b600073ffffffffffffffffffffffffffffffffffffffff82169050919050565b60005b83811015620005bb5780820151818401526020810190506200059e565b83811115620005cb576000848401525b50505050565b60006002820490506001821680620005ea57607f821691505b602082108114156200060157620006006200063d565b5b50919050565b6200061282620006af565b810181811067ffffffffffffffff821117156200063457620006336200066c565b5b80604052505050565b7f4e487b7100000000000000000000000000000000000000000000000000000000600052602260045260246000fd5b7f4e487b7100000000000000000000000000000000000000000000000000000000600052604160045260246000fd5b600080fd5b600080fd5b600080fd5b600080fd5b6000601f19601f8301169050919050565b620006cb816200055b565b8114620006d757600080fd5b50565b620006e5816200056f565b8114620006f157600080fd5b50565b612bfb80620007046000396000f3fe608060405234801561001057600080fd5b506004361061010b5760003560e01c8063715018a6116100a25780638da5cb5b116100715780638da5cb5b146102a2578063a8a34e0a146102c0578063d95b6371146102dc578063f2fde38b1461030c578063fad8b32a146103285761010b565b8063715018a6146102445780637580d9201461024e578063760d9bba1461026a5780637f23690c146102865761010b565b806347980aa3116100de57806347980aa3146101985780634e3e6e9c146101b457806354f6127f146101e457806370a08231146102145761010b565b806301ffc9a71461011057806314a6e2931461014057806318160ddd1461015c578063313ce5671461017a575b600080fd5b61012a6004803603810190610125919061210d565b610344565b6040516101379190612474565b60405180910390f35b61015a60048036038101906101559190611fdf565b6103a5565b005b610164610450565b604051610171919061255c565b60405180910390f35b61018261045a565b60405161018f919061255c565b60405180910390f35b6101b260048036038101906101ad9190611de8565b610482565b005b6101ce60048036038101906101c99190611f96565b610498565b6040516101db9190612452565b60405180910390f35b6101fe60048036038101906101f99190612084565b61054e565b60405161020b91906124da565b60405180910390f35b61022e60048036038101906102299190611ce4565b610560565b60405161023b919061255c565b60405180910390f35b61024c6105a9565b005b61026860048036038101906102639190611e28565b6105bd565b005b610284600480360381019061027f9190611d51565b6105d7565b005b6102a0600480360381019061029b91906120b1565b61070f565b005b6102aa610725565b6040516102b791906123f2565b60405180910390f35b6102da60048036038101906102d59190611eab565b61074e565b005b6102f660048036038101906102f19190611d11565b610841565b604051610303919061255c565b60405180910390f35b61032660048036038101906103219190611ce4565b610944565b005b610342600480360381019061033d9190611ce4565b6109c8565b005b600063e33f65c360e01b7bffffffffffffffffffffffffffffffffffffffffffffffffffffffff1916827bffffffffffffffffffffffffffffffffffffffffffffffffffffffff1916148061039e575061039d82610b36565b5b9050919050565b6103ad610b97565b80518251146103f1576040517f08c379a00000000000000000000000000000000000000000000000000000000081526004016103e89061253c565b60405180910390fd5b60005b825181101561044b5761043b838281518110610413576104126129f6565b5b602002602001015183838151811061042e5761042d6129f6565b5b6020026020010151610c0e565b61044481610cd6565b90506103f4565b505050565b6000600354905090565b6000600260009054906101000a900460ff1661047757601261047a565b60005b60ff16905090565b61049461048d610ce3565b8383610ceb565b5050565b6060815167ffffffffffffffff8111156104b5576104b4612a25565b5b6040519080825280602002602001820160405280156104e857816020015b60608152602001906001900390816104d35790505b50905060005b82518110156105485761051a83828151811061050d5761050c6129f6565b5b6020026020010151610ed5565b82828151811061052d5761052c6129f6565b5b602002602001018190525061054181610cd6565b90506104ee565b50919050565b606061055982610ed5565b9050919050565b6000600460008373ffffffffffffffffffffffffffffffffffffffff1673ffffffffffffffffffffffffffffffffffffffff168152602001908152602001600020549050919050565b6105b1610b97565b6105bb60006109de565b565b6105c5610b97565b6105d184848484610f7a565b50505050565b60006105e1610ce3565b90508573ffffffffffffffffffffffffffffffffffffffff168173ffffffffffffffffffffffffffffffffffffffff16146106fa576000600560008873ffffffffffffffffffffffffffffffffffffffff1673ffffffffffffffffffffffffffffffffffffffff16815260200190815260200160002060008373ffffffffffffffffffffffffffffffffffffffff1673ffffffffffffffffffffffffffffffffffffffff168152602001908152602001600020549050808511156106e257868183876040517ff3a6b6910000000000000000000000000000000000000000000000000000000081526004016106d9949392919061240d565b60405180910390fd5b6106f8878387846106f391906127ca565b610ceb565b505b61070786868686866110e5565b505050505050565b610717610b97565b6107218282610c0e565b5050565b60008060009054906101000a900473ffffffffffffffffffffffffffffffffffffffff16905090565b8351855114158061076157508251855114155b8061076e57508051855114155b156107a5576040517f263eee8d00000000000000000000000000000000000000000000000000000000815260040160405180910390fd5b60005b8551811015610839576108268682815181106107c7576107c66129f6565b5b60200260200101518683815181106107e2576107e16129f6565b5b60200260200101518684815181106107fd576107fc6129f6565b5b602002602001015186868681518110610819576108186129f6565b5b60200260200101516105d7565b808061083190612921565b9150506107a8565b505050505050565b60008273ffffffffffffffffffffffffffffffffffffffff168273ffffffffffffffffffffffffffffffffffffffff1614156108be57600460008373ffffffffffffffffffffffffffffffffffffffff1673ffffffffffffffffffffffffffffffffffffffff16815260200190815260200160002054905061093e565b600560008373ffffffffffffffffffffffffffffffffffffffff1673ffffffffffffffffffffffffffffffffffffffff16815260200190815260200160002060008473ffffffffffffffffffffffffffffffffffffffff1673ffffffffffffffffffffffffffffffffffffffff1681526020019081526020016000205490505b92915050565b61094c610b97565b600073ffffffffffffffffffffffffffffffffffffffff168173ffffffffffffffffffffffffffffffffffffffff1614156109bc576040517f08c379a00000000000000000000000000000000000000000000000000000000081526004016109b3906124fc565b60405180910390fd5b6109c5816109de565b50565b6109db6109d3610ce3565b826000610ceb565b50565b6109e6610725565b73ffffffffffffffffffffffffffffffffffffffff168173ffffffffffffffffffffffffffffffffffffffff1614610ada5760008060009054906101000a900473ffffffffffffffffffffffffffffffffffffffff169050816000806101000a81548173ffffffffffffffffffffffffffffffffffffffff021916908373ffffffffffffffffffffffffffffffffffffffff1602179055508173ffffffffffffffffffffffffffffffffffffffff168173ffffffffffffffffffffffffffffffffffffffff167f8be0079c531659141344cd1fd0a4f28419497f9722a3daafe3b4186f6b6457e060405160405180910390a3505b50565b80600160008481526020019081526020016000209080519060200190610b0492919061184d565b50817fcdf4e344c0d23d4cdd0474039d176c55b19d531070dbe17856bfb993a5b5720b60405160405180910390a25050565b600063714df77c60e01b7bffffffffffffffffffffffffffffffffffffffffffffffffffffffff1916827bffffffffffffffffffffffffffffffffffffffffffffffffffffffff19161480610b905750610b8f82611375565b5b9050919050565b3373ffffffffffffffffffffffffffffffffffffffff16610bb6610725565b73ffffffffffffffffffffffffffffffffffffffff1614610c0c576040517f08c379a0000000000000000000000000000000000000000000000000000000008152600401610c039061251c565b60405180910390fd5b565b7fdeba1e292f8ba88238e10ab3c7f88bd4be4fac56cad5194b6ecceaf653468af160001b821415610c6b576040517f85c169bd00000000000000000000000000000000000000000000000000000000815260040160405180910390fd5b7f2f0a68ab07768e01943a599e73362a0e17a63a72e94dd2e384d2c1d4db93275660001b821415610cc8576040517f76755b3800000000000000000000000000000000000000000000000000000000815260040160405180910390fd5b610cd28282610add565b5050565b6000600182019050919050565b600033905090565b600073ffffffffffffffffffffffffffffffffffffffff168273ffffffffffffffffffffffffffffffffffffffff161415610d52576040517f6355e76600000000000000000000000000000000000000000000000000000000815260040160405180910390fd5b8273ffffffffffffffffffffffffffffffffffffffff168273ffffffffffffffffffffffffffffffffffffffff161415610d8b57610ed0565b80600560008573ffffffffffffffffffffffffffffffffffffffff1673ffffffffffffffffffffffffffffffffffffffff16815260200190815260200160002060008473ffffffffffffffffffffffffffffffffffffffff1673ffffffffffffffffffffffffffffffffffffffff1681526020019081526020016000208190555060008114610e7457808373ffffffffffffffffffffffffffffffffffffffff168373ffffffffffffffffffffffffffffffffffffffff167fd66aff874162a96578e919097b6f6d153dfd89a5cec41bb331fdb0c4aec16e2c60405160405180910390a4610ecf565b8273ffffffffffffffffffffffffffffffffffffffff168273ffffffffffffffffffffffffffffffffffffffff167f50546e66e5f44d728365dc3908c63bc5cfeeab470722c1677e3073a6ac294aa160405160405180910390a35b5b505050565b6060600160008381526020019081526020016000208054610ef5906128be565b80601f0160208091040260200160405190810160405280929190818152602001828054610f21906128be565b8015610f6e5780601f10610f4357610100808354040283529160200191610f6e565b820191906000526020600020905b815481529060010190602001808311610f5157829003601f168201915b50505050509050919050565b600073ffffffffffffffffffffffffffffffffffffffff168473ffffffffffffffffffffffffffffffffffffffff161415610fe1576040517fd2d5ec3000000000000000000000000000000000000000000000000000000000815260040160405180910390fd5b6000610feb610ce3565b9050610ff9600086866113df565b83600460008773ffffffffffffffffffffffffffffffffffffffff1673ffffffffffffffffffffffffffffffffffffffff16815260200190815260200160002060008282546110489190612774565b925050819055508473ffffffffffffffffffffffffffffffffffffffff16600073ffffffffffffffffffffffffffffffffffffffff168273ffffffffffffffffffffffffffffffffffffffff167f3997e418d2cef0b3b0e907b1e39605c3f7d32dbd061e82ea5b4a770d46a160a68787876040516110c8939291906125ae565b60405180910390a46110de600086868686611482565b5050505050565b600073ffffffffffffffffffffffffffffffffffffffff168573ffffffffffffffffffffffffffffffffffffffff16148061114c5750600073ffffffffffffffffffffffffffffffffffffffff168473ffffffffffffffffffffffffffffffffffffffff16145b15611183576040517fd2d5ec3000000000000000000000000000000000000000000000000000000000815260040160405180910390fd5b6000600460008773ffffffffffffffffffffffffffffffffffffffff1673ffffffffffffffffffffffffffffffffffffffff16815260200190815260200160002054905080841115611210578086856040517f08d4794900000000000000000000000000000000000000000000000000000000815260040161120793929190612577565b60405180910390fd5b600061121a610ce3565b90506112278787876113df565b84600460008973ffffffffffffffffffffffffffffffffffffffff1673ffffffffffffffffffffffffffffffffffffffff168152602001908152602001600020600082825461127691906127ca565b9250508190555084600460008873ffffffffffffffffffffffffffffffffffffffff1673ffffffffffffffffffffffffffffffffffffffff16815260200190815260200160002060008282546112cc9190612774565b925050819055508573ffffffffffffffffffffffffffffffffffffffff168773ffffffffffffffffffffffffffffffffffffffff168273ffffffffffffffffffffffffffffffffffffffff167f3997e418d2cef0b3b0e907b1e39605c3f7d32dbd061e82ea5b4a770d46a160a688888860405161134b939291906125ae565b60405180910390a461135f87878786611624565b61136c8787878787611482565b50505050505050565b60007f01ffc9a7000000000000000000000000000000000000000000000000000000007bffffffffffffffffffffffffffffffffffffffffffffffffffffffff1916827bffffffffffffffffffffffffffffffffffffffffffffffffffffffff1916149050919050565b600073ffffffffffffffffffffffffffffffffffffffff168373ffffffffffffffffffffffffffffffffffffffff16141561142e5780600360008282546114269190612774565b925050819055505b600073ffffffffffffffffffffffffffffffffffffffff168273ffffffffffffffffffffffffffffffffffffffff16141561147d57806003600082825461147591906127ca565b925050819055505b505050565b61149384636bb56a1460e01b611722565b1561157e576000858585846040516020016114b19493929190612391565b60405160208183030381529060405290508473ffffffffffffffffffffffffffffffffffffffff16636bb56a147fdbe2c314e1aee2970c72666f2ebe8933a8575263ea71e5ff6a9178e95d47a26f60001b836040518363ffffffff1660e01b815260040161152092919061248f565b600060405180830381600087803b15801561153a57600080fd5b505af115801561154e573d6000803e3d6000fd5b505050506040513d6000823e3d601f19601f82011682018060405250810190611577919061213a565b505061161d565b8161161c5760008473ffffffffffffffffffffffffffffffffffffffff163b146115df57836040517fa608fbb60000000000000000000000000000000000000000000000000000000081526004016115d691906123f2565b60405180910390fd5b836040517f26c247f400000000000000000000000000000000000000000000000000000000815260040161161391906123f2565b60405180910390fd5b5b5050505050565b61163584636bb56a1460e01b611722565b1561171c576000848484846040516020016116539493929190612391565b60405160208183030381529060405290508473ffffffffffffffffffffffffffffffffffffffff16636bb56a147f40b8bec57d7b5ff0dbd9e9acd0a47dfeb0101e1a203766f5ccab00445fbf39e960001b836040518363ffffffff1660e01b81526004016116c292919061248f565b600060405180830381600087803b1580156116dc57600080fd5b505af11580156116f0573d6000803e3d6000fd5b505050506040513d6000823e3d601f19601f82011682018060405250810190611719919061213a565b50505b50505050565b6000806301ffc9a760e01b8360405160240161173e91906124bf565b604051602081830303815290604052907bffffffffffffffffffffffffffffffffffffffffffffffffffffffff19166020820180517bffffffffffffffffffffffffffffffffffffffffffffffffffffffff838183161783525050505090506000808573ffffffffffffffffffffffffffffffffffffffff16617530846040516117c891906123db565b6000604051808303818686fa925050503d8060008114611804576040519150601f19603f3d011682016040523d82523d6000602084013e611809565b606091505b50915091506020815110156118245760009350505050611847565b8180156118415750808060200190518101906118409190612057565b5b93505050505b92915050565b828054611859906128be565b90600052602060002090601f01602090048101928261187b57600085556118c2565b82601f1061189457805160ff19168380011785556118c2565b828001600101855582156118c2579182015b828111156118c15782518255916020019190600101906118a6565b5b5090506118cf91906118d3565b5090565b5b808211156118ec5760008160009055506001016118d4565b5090565b60006119036118fe84612611565b6125ec565b9050808382526020820190508285602086028201111561192657611925612a59565b5b60005b85811015611956578161193c8882611b52565b845260208401935060208301925050600181019050611929565b5050509392505050565b600061197361196e8461263d565b6125ec565b9050808382526020820190508285602086028201111561199657611995612a59565b5b60005b858110156119c657816119ac8882611c49565b845260208401935060208301925050600181019050611999565b5050509392505050565b60006119e36119de84612669565b6125ec565b90508083825260208201905082856020860282011115611a0657611a05612a59565b5b60005b85811015611a5457813567ffffffffffffffff811115611a2c57611a2b612a54565b5b808601611a398982611c73565b85526020850194506020840193505050600181019050611a09565b5050509392505050565b6000611a71611a6c84612695565b6125ec565b90508083825260208201905082856020860282011115611a9457611a93612a59565b5b60005b85811015611ac45781611aaa8882611ccf565b845260208401935060208301925050600181019050611a97565b5050509392505050565b6000611ae1611adc846126c1565b6125ec565b905082815260208101848484011115611afd57611afc612a5e565b5b611b0884828561287c565b509392505050565b6000611b23611b1e846126c1565b6125ec565b905082815260208101848484011115611b3f57611b3e612a5e565b5b611b4a84828561288b565b509392505050565b600081359050611b6181612b52565b92915050565b600082601f830112611b7c57611b7b612a54565b5b8135611b8c8482602086016118f0565b91505092915050565b600082601f830112611baa57611ba9612a54565b5b8135611bba848260208601611960565b91505092915050565b600082601f830112611bd857611bd7612a54565b5b8135611be88482602086016119d0565b91505092915050565b600082601f830112611c0657611c05612a54565b5b8135611c16848260208601611a5e565b91505092915050565b600081359050611c2e81612b69565b92915050565b600081519050611c4381612b69565b92915050565b600081359050611c5881612b80565b92915050565b600081359050611c6d81612b97565b92915050565b600082601f830112611c8857611c87612a54565b5b8135611c98848260208601611ace565b91505092915050565b600082601f830112611cb657611cb5612a54565b5b8151611cc6848260208601611b10565b91505092915050565b600081359050611cde81612bae565b92915050565b600060208284031215611cfa57611cf9612a68565b5b6000611d0884828501611b52565b91505092915050565b60008060408385031215611d2857611d27612a68565b5b6000611d3685828601611b52565b9250506020611d4785828601611b52565b9150509250929050565b600080600080600060a08688031215611d6d57611d6c612a68565b5b6000611d7b88828901611b52565b9550506020611d8c88828901611b52565b9450506040611d9d88828901611ccf565b9350506060611dae88828901611c1f565b925050608086013567ffffffffffffffff811115611dcf57611dce612a63565b5b611ddb88828901611c73565b9150509295509295909350565b60008060408385031215611dff57611dfe612a68565b5b6000611e0d85828601611b52565b9250506020611e1e85828601611ccf565b9150509250929050565b60008060008060808587031215611e4257611e41612a68565b5b6000611e5087828801611b52565b9450506020611e6187828801611ccf565b9350506040611e7287828801611c1f565b925050606085013567ffffffffffffffff811115611e9357611e92612a63565b5b611e9f87828801611c73565b91505092959194509250565b600080600080600060a08688031215611ec757611ec6612a68565b5b600086013567ffffffffffffffff811115611ee557611ee4612a63565b5b611ef188828901611b67565b955050602086013567ffffffffffffffff811115611f1257611f11612a63565b5b611f1e88828901611b67565b945050604086013567ffffffffffffffff811115611f3f57611f3e612a63565b5b611f4b88828901611bf1565b9350506060611f5c88828901611c1f565b925050608086013567ffffffffffffffff811115611f7d57611f7c612a63565b5b611f8988828901611bc3565b9150509295509295909350565b600060208284031215611fac57611fab612a68565b5b600082013567ffffffffffffffff811115611fca57611fc9612a63565b5b611fd684828501611b95565b91505092915050565b60008060408385031215611ff657611ff5612a68565b5b600083013567ffffffffffffffff81111561201457612013612a63565b5b61202085828601611b95565b925050602083013567ffffffffffffffff81111561204157612040612a63565b5b61204d85828601611bc3565b9150509250929050565b60006020828403121561206d5761206c612a68565b5b600061207b84828501611c34565b91505092915050565b60006020828403121561209a57612099612a68565b5b60006120a884828501611c49565b91505092915050565b600080604083850312156120c8576120c7612a68565b5b60006120d685828601611c49565b925050602083013567ffffffffffffffff8111156120f7576120f6612a63565b5b61210385828601611c73565b9150509250929050565b60006020828403121561212357612122612a68565b5b600061213184828501611c5e565b91505092915050565b6000602082840312156121505761214f612a68565b5b600082015167ffffffffffffffff81111561216e5761216d612a63565b5b61217a84828501611ca1565b91505092915050565b600061218f838361225f565b905092915050565b6121a0816127fe565b82525050565b6121b76121b2826127fe565b61296a565b82525050565b60006121c882612702565b6121d28185612725565b9350836020820285016121e4856126f2565b8060005b8581101561222057848403895281516122018582612183565b945061220c83612718565b925060208a019950506001810190506121e8565b50829750879550505050505092915050565b61223b81612810565b82525050565b61224a8161281c565b82525050565b61225981612826565b82525050565b600061226a8261270d565b6122748185612736565b935061228481856020860161288b565b61228d81612a6d565b840191505092915050565b60006122a38261270d565b6122ad8185612747565b93506122bd81856020860161288b565b6122c681612a6d565b840191505092915050565b60006122dc8261270d565b6122e68185612758565b93506122f681856020860161288b565b80840191505092915050565b600061230f602683612763565b915061231a82612a8b565b604082019050919050565b6000612332602083612763565b915061233d82612ada565b602082019050919050565b6000612355602683612763565b915061236082612b03565b604082019050919050565b61237481612872565b82525050565b61238b61238682612872565b61298e565b82525050565b600061239d82876121a6565b6014820191506123ad82866121a6565b6014820191506123bd828561237a565b6020820191506123cd82846122d1565b915081905095945050505050565b60006123e782846122d1565b915081905092915050565b60006020820190506124076000830184612197565b92915050565b60006080820190506124226000830187612197565b61242f602083018661236b565b61243c6040830185612197565b612449606083018461236b565b95945050505050565b6000602082019050818103600083015261246c81846121bd565b905092915050565b60006020820190506124896000830184612232565b92915050565b60006040820190506124a46000830185612241565b81810360208301526124b68184612298565b90509392505050565b60006020820190506124d46000830184612250565b92915050565b600060208201905081810360008301526124f48184612298565b905092915050565b6000602082019050818103600083015261251581612302565b9050919050565b6000602082019050818103600083015261253581612325565b9050919050565b6000602082019050818103600083015261255581612348565b9050919050565b6000602082019050612571600083018461236b565b92915050565b600060608201905061258c600083018661236b565b6125996020830185612197565b6125a6604083018461236b565b949350505050565b60006060820190506125c3600083018661236b565b6125d06020830185612232565b81810360408301526125e28184612298565b9050949350505050565b60006125f6612607565b905061260282826128f0565b919050565b6000604051905090565b600067ffffffffffffffff82111561262c5761262b612a25565b5b602082029050602081019050919050565b600067ffffffffffffffff82111561265857612657612a25565b5b602082029050602081019050919050565b600067ffffffffffffffff82111561268457612683612a25565b5b602082029050602081019050919050565b600067ffffffffffffffff8211156126b0576126af612a25565b5b602082029050602081019050919050565b600067ffffffffffffffff8211156126dc576126db612a25565b5b6126e582612a6d565b9050602081019050919050565b6000819050602082019050919050565b600081519050919050565b600081519050919050565b6000602082019050919050565b600082825260208201905092915050565b600082825260208201905092915050565b600082825260208201905092915050565b600081905092915050565b600082825260208201905092915050565b600061277f82612872565b915061278a83612872565b9250827fffffffffffffffffffffffffffffffffffffffffffffffffffffffffffffffff038211156127bf576127be612998565b5b828201905092915050565b60006127d582612872565b91506127e083612872565b9250828210156127f3576127f2612998565b5b828203905092915050565b600061280982612852565b9050919050565b60008115159050919050565b6000819050919050565b60007fffffffff0000000000000000000000000000000000000000000000000000000082169050919050565b600073ffffffffffffffffffffffffffffffffffffffff82169050919050565b6000819050919050565b82818337600083830152505050565b60005b838110156128a957808201518184015260208101905061288e565b838111156128b8576000848401525b50505050565b600060028204905060018216806128d657607f821691505b602082108114156128ea576128e96129c7565b5b50919050565b6128f982612a6d565b810181811067ffffffffffffffff8211171561291857612917612a25565b5b80604052505050565b600061292c82612872565b91507fffffffffffffffffffffffffffffffffffffffffffffffffffffffffffffffff82141561295f5761295e612998565b5b600182019050919050565b60006129758261297c565b9050919050565b600061298782612a7e565b9050919050565b6000819050919050565b7f4e487b7100000000000000000000000000000000000000000000000000000000600052601160045260246000fd5b7f4e487b7100000000000000000000000000000000000000000000000000000000600052602260045260246000fd5b7f4e487b7100000000000000000000000000000000000000000000000000000000600052603260045260246000fd5b7f4e487b7100000000000000000000000000000000000000000000000000000000600052604160045260246000fd5b600080fd5b600080fd5b600080fd5b600080fd5b600080fd5b6000601f19601f8301169050919050565b60008160601b9050919050565b7f4f776e61626c653a206e6577206f776e657220697320746865207a65726f206160008201527f6464726573730000000000000000000000000000000000000000000000000000602082015250565b7f4f776e61626c653a2063616c6c6572206973206e6f7420746865206f776e6572600082015250565b7f4b657973206c656e677468206e6f7420657175616c20746f2076616c7565732060008201527f6c656e6774680000000000000000000000000000000000000000000000000000602082015250565b612b5b816127fe565b8114612b6657600080fd5b50565b612b7281612810565b8114612b7d57600080fd5b50565b612b898161281c565b8114612b9457600080fd5b50565b612ba081612826565b8114612bab57600080fd5b50565b612bb781612872565b8114612bc257600080fd5b5056fea2646970667358221220ed4cdffd7ca26f09c638085af802324c1a1a273aa2e8272a033f9e88610f42bf64736f6c63430008070033",
  "immutableReferences": {},
  "source": "// SPDX-License-Identifier: MIT\n\npragma solidity ^0.8.0;\n\n// modules\nimport {LSP7DigitalAsset} from \"@lukso/lsp-smart-contracts/contracts/LSP7DigitalAsset/LSP7DigitalAsset.sol\";\nimport {LSP7MintableCore} from \"@lukso/lsp-smart-contracts/contracts/LSP7DigitalAsset/presets/LSP7MintableCore.sol\";\n\n\n/**\n * @title LSP7Mintable\n * @author Jean Cavallera, Yamen Merhi\n * @dev LSP7 extension, mintable.\n */\ncontract LSP7Mintable is LSP7DigitalAsset, LSP7MintableCore {\n    // solhint-disable no-empty-blocks\n\n    /**\n     * @notice Sets the token-Metadata and register LSP7InterfaceId\n     * @param name_ The name of the token\n     * @param symbol_ The symbol of the token\n     * @param newOwner_ The owner of the the token-Metadata\n     * @param isNFT_ Specify if the LSP7 token is a fungible or non-fungible token\n     */\n    constructor(\n        string memory name_,\n        string memory symbol_,\n        address newOwner_,\n        bool isNFT_\n    ) LSP7DigitalAsset(name_, symbol_, newOwner_, isNFT_) {}\n\n    /**\n     * @inheritdoc LSP7MintableCore\n     */\n    function mint(\n        address to,\n        uint256 amount,\n        bool force,\n        bytes memory data\n    ) public override onlyOwner {\n        _mint(to, amount, force, data);\n    }\n}\n",
  "sourcePath": "/Users/mitch/Desktop/LUKSOUI/LUKSO/contracts/LSP7Token.sol",
  "compiler": {
    "name": "solc",
    "version": "0.8.7+commit.e28d00a7.Emscripten.clang"
  },
  "schemaVersion": "3.4.7",
  "updatedAt": "2022-08-23T06:16:40.812Z",
  "networkType": "ethereum",
  "devdoc": {
    "author": "Jean Cavallera, Yamen Merhi",
    "details": "LSP7 extension, mintable.",
    "errors": {
      "LSP4TokenNameNotEditable()": [
        {
          "details": "Reverts when trying to edit the data key `LSP4TokenName` after the digital asset contract has been deployed.      The `LSP4TokenName` data key is located inside the ERC725Y key-value store of the digital asset contract.      It can be set only once inside the constructor/initializer when the digital asset contract is being deployed."
        }
      ],
      "LSP4TokenSymbolNotEditable()": [
        {
          "details": "Reverts when trying to edit the data key `LSP4TokenSymbol` after the digital asset contract has been deployed.      The `LSP4TokenSymbol` data key is located inside the ERC725Y key-value store of the digital asset contract.      It can be set only once inside the constructor/initializer when the digital asset contract is being deployed."
        }
      ]
    },
    "kind": "dev",
    "methods": {
      "authorizeOperator(address,uint256)": {
        "details": "Sets `amount` as the amount of tokens `operator` address has access to from callers tokens. See {isOperatorFor}. Requirements - `operator` cannot be the zero address. Emits an {AuthorizedOperator} event.",
        "params": {
          "amount": "The amount of tokens operator has access to.",
          "operator": "The address to authorize as an operator."
        }
      },
      "balanceOf(address)": {
        "details": "Returns the number of tokens owned by `tokenOwner`.",
        "params": {
          "tokenOwner": "The address to query"
        },
        "returns": {
          "_0": "The number of tokens owned by this address"
        }
      },
      "constructor": {
        "params": {
          "isNFT_": "Specify if the LSP7 token is a fungible or non-fungible token",
          "name_": "The name of the token",
          "newOwner_": "The owner of the the token-Metadata",
          "symbol_": "The symbol of the token"
        }
      },
      "decimals()": {
        "details": "Returns the number of decimals used to get its user representation If the contract represents a NFT then 0 SHOULD be used, otherwise 18 is the common value NOTE: This information is only used for _display_ purposes: it in no way affects any of the arithmetic of the contract, including {balanceOf} and {transfer}."
      },
      "getData(bytes32)": {
        "params": {
          "dataKey": "The key which value to retrieve"
        },
        "returns": {
          "dataValue": "The data stored at the key"
        }
      },
      "getData(bytes32[])": {
        "params": {
          "dataKeys": "The array of keys which values to retrieve"
        },
        "returns": {
          "dataValues": "The array of data stored at multiple keys"
        }
      },
      "isOperatorFor(address,address)": {
        "details": "Returns amount of tokens `operator` address has access to from `tokenOwner`. Operators can send and burn tokens on behalf of their owners. The tokenOwner is their own operator.",
        "params": {
          "operator": "The address to query operator status for.",
          "tokenOwner": "The token owner."
        },
        "returns": {
          "_0": "The amount of tokens `operator` address has access to from `tokenOwner`."
        }
      },
      "mint(address,uint256,bool,bytes)": {
        "details": "Mints `amount` tokens and transfers it to `to`. Requirements: - `to` cannot be the zero address. Emits a {Transfer} event.",
        "params": {
          "amount": "The amount to mint",
          "data": "Additional data the caller wants included in the emitted event, and sent in the hooks to `from` and `to` addresses.",
          "force": "When set to TRUE, to may be any address but when set to FALSE to must be a contract that supports LSP1 UniversalReceiver",
          "to": "The address to mint tokens"
        }
      },
      "owner()": {
        "details": "Returns the address of the current owner."
      },
      "renounceOwnership()": {
        "details": "Leaves the contract without owner. It will not be possible to call `onlyOwner` functions anymore. Can only be called by the current owner. NOTE: Renouncing ownership will leave the contract without an owner, thereby removing any functionality that is only available to the owner."
      },
      "revokeOperator(address)": {
        "details": "Removes `operator` address as an operator of callers tokens. See {isOperatorFor}. Requirements - `operator` cannot be the zero address. Emits a {RevokedOperator} event.",
        "params": {
          "operator": "The address to revoke as an operator."
        }
      },
      "setData(bytes32,bytes)": {
        "params": {
          "dataKey": "The key to retrieve stored value",
          "dataValue": "The value to set SHOULD only be callable by the owner of the contract set via ERC173 Emits a {DataChanged} event."
        }
      },
      "setData(bytes32[],bytes[])": {
        "details": "Sets array of data for multiple given `dataKeys` SHOULD only be callable by the owner of the contract set via ERC173 Emits a {DataChanged} event.",
        "params": {
          "dataKeys": "The array of data keys for values to set",
          "dataValues": "The array of values to set"
        }
      },
      "supportsInterface(bytes4)": {
        "details": "See {IERC165-supportsInterface}."
      },
      "totalSupply()": {
        "details": "Returns the number of existing tokens.",
        "returns": {
          "_0": "The number of existing tokens"
        }
      },
      "transfer(address,address,uint256,bool,bytes)": {
        "details": "Transfers `amount` of tokens from `from` to `to`. The `force` parameter will be used when notifying the token sender and receiver. Requirements: - `from` cannot be the zero address. - `to` cannot be the zero address. - `amount` tokens must be owned by `from`. - If the caller is not `from`, it must be an operator for `from` with access to at least `amount` tokens. Emits a {Transfer} event.",
        "params": {
          "amount": "The amount of tokens to transfer.",
          "data": "Additional data the caller wants included in the emitted event, and sent in the hooks to `from` and `to` addresses.",
          "force": "When set to TRUE, to may be any address but when set to FALSE to must be a contract that supports LSP1 UniversalReceiver",
          "from": "The sending address.",
          "to": "The receiving address."
        }
      },
      "transferBatch(address[],address[],uint256[],bool,bytes[])": {
        "details": "Transfers many tokens based on the list `from`, `to`, `amount`. If any transfer fails the call will revert. Requirements: - `from`, `to`, `amount` lists are the same length. - no values in `from` can be the zero address. - no values in `to` can be the zero address. - each `amount` tokens must be owned by `from`. - If the caller is not `from`, it must be an operator for `from` with access to at least `amount` tokens. Emits {Transfer} events.",
        "params": {
          "amount": "The amount of tokens to transfer.",
          "data": "Additional data the caller wants included in the emitted event, and sent in the hooks to `from` and `to` addresses.",
          "force": "When set to TRUE, to may be any address but when set to FALSE to must be a contract that supports LSP1 UniversalReceiver",
          "from": "The list of sending addresses.",
          "to": "The list of receiving addresses."
        }
      },
      "transferOwnership(address)": {
        "details": "Transfers ownership of the contract to a new account (`newOwner`). Can only be called by the current owner."
      }
    },
    "title": "LSP7Mintable",
    "version": 1
  },
  "userdoc": {
    "events": {
      "DataChanged(bytes32)": {
        "notice": "Emitted when data at a key is changed"
      }
    },
    "kind": "user",
    "methods": {
      "constructor": {
        "notice": "Sets the token-Metadata and register LSP7InterfaceId"
      },
      "getData(bytes32)": {
        "notice": "Gets singular data at a given `dataKey`"
      },
      "getData(bytes32[])": {
        "notice": "Gets array of data for multiple given keys"
      },
      "setData(bytes32,bytes)": {
        "notice": "Sets singular data for a given `dataKey`"
      }
    },
    "version": 1
  }
}